:100000000C9434000C943E000C943E000C943E0082
:100010000C943E000C943E000C943E000C943E0068
:100020000C943E000C943E000C943E000C943E0058
:100030000C943E000C943E000C943E000C943E0048
:100040000C943E000C943E000C943E000C943E0038
:100050000C943E000C943E000C943E000C943E0028
:100060000C943E000C943E0011241FBECFEFD8E04C
:10007000DEBFCDBF0E9440000C948E000C940000A7
:100080008FE384B941E032E084E098E020E145B9B3
:100090005FEF62E577E0515060407040E1F700C0EB
:1000A000000035B95FEF62E577E051506040704085
:1000B000E1F700C0000085B95FEF62E577E05150DD
:1000C00060407040E1F700C0000095B95FEF62E565
:1000D00077E0515060407040E1F700C0000025B962
:1000E0005FEF62E577E0515060407040E1F700C09B
:1000F000000095B95FEF62E577E0515060407040D5
:10010000E1F700C0000085B95FEF62E577E051508C
:1001100060407040E1F700C00000B9CFF894FFCF15
:00000001FF
