:100000000C9434000C943E000C943E000C943E0082
:100010000C943E000C943E000C943E000C943E0068
:100020000C943E000C943E000C943E000C943E0058
:100030000C943E000C943E000C943E000C943E0048
:100040000C943E000C943E000C943E000C943E0038
:100050000C943E000C943E000C943E000C943E0028
:100060000C943E000C943E0011241FBECFEFD8E04C
:10007000DEBFCDBF0E9440000C9473000C940000C2
:1000800041E050E080E090E024B1BA01082E01C0C8
:10009000660F0A94EAF7262B25B92FEF32E567E0C1
:1000A000215030406040E1F700C0000001968530EB
:1000B000910551F784B1886085B98FEF92E527E00B
:1000C000815090402040E1F700C0000084B184607E
:1000D00085B93FEF62E587E0315060408040E1F74D
:0A00E00000C00000CFCFF894FFCF5E
:00000001FF
