:100000000C9434000C943E000C943E000C943E0082
:100010000C943E000C943E000C943E000C943E0068
:100020000C943E000C943E000C943E000C943E0058
:100030000C943E000C943E000C943E000C943E0048
:100040000C943E000C943E000C943E000C943E0038
:100050000C943E000C943E000C943E000C943E0028
:100060000C943E000C943E0011241FBECFEFD8E04C
:10007000DEBFCDBF0E9440000C9465000C940000D0
:100080008FEF84B985E090E021E025B93FEF44E3AC
:100090005CE0315040405040E1F700C00000220FCA
:1000A0000197009791F784E090E020E125B93FEFB8
:1000B00044E35CE0315040405040E1F700C00000B4
:0E00C00026950197009791F7DDCFF894FFCFBA
:00000001FF
