:100000000C9434000C943E000C943E000C943E0082
:100010000C943E000C943E000C943E000C943E0068
:100020000C943E000C943E000C943E000C943E0058
:100030000C943E000C943E000C943E000C943E0048
:100040000C943E000C943E000C943E000C943E0038
:100050000C943E000C943E000C943E000C943E0028
:100060000C943E000C943E0011241FBECFEFD8E04C
:10007000DEBFCDBF0E9440000C9460000C940000D5
:100080008AB180668AB95D9A84B5836884BD85B576
:10009000836085BD80E087BDEFE3FCE93197F1F730
:1000A00000C000008F5F8F3FB1F787BDEFE3FCE931
:1000B0003197F1F700C0000081508111F6CFEACFEF
:0400C000F894FFCFE2
:00000001FF
