:100000000C9434000C9449000C9449000C94490061
:100010000C9449000C9449000C9449000C9449003C
:100020000C9449000C9449000C9449000C9449002C
:100030000C9449000C9449000C9449000C9449001C
:100040000C9449000C9449000C9449000C9449000C
:100050000C9449000C9449000C9449000C944900FC
:100060000C9449000C94490011241FBECFEFD8E036
:10007000DEBFCDBF11E0A0E0B1E0E2EFF0E002C0F2
:1000800005900D92A630B107D9F70E944B000C9451
:1000900077000C94000000D000D0CDB7DEB78AB155
:1000A00080668AB95D9A86E987BD84B5836884BD18
:1000B0008091000190910101A0910201B091030192
:1000C00089839A83AB83BC83CE010596FE0131966A
:1000D000219125BD2FEF33ED40E3215030404040CA
:1000E000E1F700C00000E817F90791F7EFCFF894A7
:0200F000FFCF40
:0600F200020304050000FA
:00000001FF
