:100000000C9434000C943E000C943E000C943E0082
:100010000C943E000C943E000C943E000C943E0068
:100020000C943E000C943E000C943E000C943E0058
:100030000C943E000C943E000C943E000C943E0048
:100040000C943E000C943E000C943E000C943E0038
:100050000C943E000C943E000C943E000C943E0028
:100060000C943E000C943E0011241FBECFEFD8E04C
:10007000DEBFCDBF0E9440000C9457000C940000DE
:1000800057988FE384B990E089B12FEF31EE44E0C7
:10009000215030404040E1F700C0000087FFF4CF1E
:1000A00029B1822787FFF0CF9F5F95B9EDCFF894F4
:0200B000FFCF80
:00000001FF
