:100000000C9434000C9448000C9446000C94460068
:100010000C9446000C9446000C9446000C94460048
:100020000C9446000C9446000C9446000C94460038
:100030000C9446000C9446000C9446000C94460028
:100040000C9446000C9446000C9446000C94460018
:100050000C9446000C9446000C9446000C94460008
:100060000C9446000C94460011241FBECFEFD8E03C
:10007000DEBFCDBF21E0A0E0B1E001C01D92A23003
:10008000B207E1F70E945E000C947B000C94000024
:100090001F921FB61F9211248F9380910001882315
:1000A00041F0809101018F5F8093010185B9109229
:1000B00000018F911F901FBE1F90189552988FE3DB
:1000C00084B98091690082608093690080916900A1
:1000D000809369007894E89A2FEF8BE49DE121509A
:1000E00080409040E1F700C00000809100018F5FE8
:0A00F00080930001F1CFF894FFCFD8
:00000001FF
