:100000000C9434000C9448000C946F000C9446003F
:100010000C9446000C9446000C9446000C94460048
:100020000C9446000C9446000C9446000C94460038
:100030000C9446000C9446000C9446000C94460028
:100040000C9446000C9446000C9446000C94460018
:100050000C9446000C9446000C9446000C94460008
:100060000C9446000C94460011241FBECFEFD8E03C
:10007000DEBFCDBF21E0A0E0B1E001C01D92A23003
:10008000B207E1F70E9495000C94C0000C940000A8
:100090001F921FB61F9211242F933F938F939F930C
:1000A00080910001882399F025B13091010181E010
:1000B00090E001C0880F3A95EAF78095822385B9D0
:1000C000809101018F5F80930101109200019F9147
:1000D0008F913F912F911F901FBE1F9018951F92D7
:1000E0001FB61F9211242F933F938F939F9380915C
:1000F0000001882391F085B19091010121E030E069
:1001000001C0220F9A95EAF7822B85B980910101EF
:100110008F5F80930101109200019F918F913F9119
:100120002F911F901FBE1F9018958AB1837F8AB9A7
:100130008FE384B980916900826080936900809127
:100140006900816080936900809169008860809374
:100150006900809169008460809369007894E89ACE
:10016000E99A2FEF82EF96E1215080409040E1F72D
:1001700000C00000809100018F5F80930001F1CFEB
:04018000F894FFCF21
:00000001FF
