:100000000C9434000C943E000C943E000C943E0082
:100010000C943E000C943E000C943E000C943E0068
:100020000C943E000C943E000C943E000C943E0058
:100030000C943E000C943E000C943E000C943E0048
:100040000C943E000C943E000C943E000C943E0038
:100050000C943E000C943E000C943E000C943E0028
:100060000C943E000C943E0011241FBECFEFD8E04C
:10007000DEBFCDBF0E9440000C945C000C940000D9
:1000800057988FE384B940E020E03FEF81EE94E0A1
:10009000315080409040E1F700C0000089B1807885
:1000A00090E030E0209530958223932321E0892B46
:0C00B00061F34F5F45B9E8CFF894FFCF33
:00000001FF
