:100000000C9434000C943E000C943E000C943E0082
:100010000C943E000C943E000C943E000C943E0068
:100020000C943E000C943E000C943E000C943E0058
:100030000C943E000C9440000C943E000C943E0046
:100040000C943E000C943E000C943E000C943E0038
:100050000C943E000C943E000C943E000C943E0028
:100060000C943E000C943E0011241FBECFEFD8E04C
:10007000DEBFCDBF0E9453000C94A9000C94000079
:100080008F938FB78F939F9385B190E2892785B91E
:100090008DED9BE090938500809384009F918F91DC
:1000A0008FBF8F91189584B18F6284B98DED9BE0DD
:1000B00090938500809384001092800084E0809368
:1000C0008100789480916F00816080936F0061E07F
:1000D00070E020E030E045B1CB01022E01C0880F76
:1000E0000A94EAF7942F982B95B94FEF53EDE0E37C
:1000F00041505040E040E1F700C0000095B18095CC
:10010000892385B92F5F3F4F2430310521F72B9A82
:100110002FEF43ED50E3215040405040E1F700C045
:1001200000002B982A9A8FEF93EDE0E381509040E6
:10013000E040E1F700C000002A98299A2FEF43ED34
:1001400050E3215040405040E1F700C000002998A2
:06015000C0CFF894FFCFC0
:00000001FF
