:100000000C9434000C9449000C9449000C94490061
:100010000C9449000C9449000C9449000C9449003C
:100020000C9449000C9449000C9449000C9449002C
:100030000C9449000C9449000C9449000C9449001C
:100040000C944B000C9449000C9449000C9449000A
:100050000C9449000C9449000C9449000C944900FC
:100060000C9449000C94490011241FBECFEFD8E036
:10007000DEBFCDBF11E0A0E0B1E0E6EEF0E002C0EF
:1000800005900D92A230B107D9F70E9464000C943C
:1000900071000C9400001F921FB61F9211248F93C1
:1000A0009F93809100018F5F80930001863031F42F
:1000B00085B190E2892785B9109200019F918F91B7
:1000C0001F901FBE1F90189580E284B916BC14BC07
:1000D00085E085BD789480916E00816080936E008C
:0600E000FFCFF894FFCFF2
:0200E600010017
:00000001FF
