:100000000C9434000C9449000C9449000C94490061
:100010000C9449000C9449000C9449000C9449003C
:100020000C9449000C9449000C9449000C9449002C
:100030000C9449000C9464000C9449000C94490001
:100040000C944B000C9449000C9449000C9449000A
:100050000C9449000C9449000C9449000C944900FC
:100060000C9449000C94490011241FBECFEFD8E036
:10007000DEBFCDBF11E0A0E0B1E0ECE2F1E002C0F4
:1000800005900D92A230B107D9F70E9477000C9429
:1000900094000C9400001F921FB61F9211248F939E
:1000A0009F93809100018F5F80930001833031F432
:1000B00085B191E0892785B9109200019F918F91B8
:1000C0001F901FBE1F9018958F938FB78F939F938C
:1000D00085B192E0892785B98FEE95E890938500E8
:1000E000809384009F918F918FBF8F91189583E0AB
:1000F00084B916BC8FEE95E89093850080938400B8
:1001000014BC85E085BD1092800084E0809381005E
:10011000789480916E00816080936E0080916F0072
:0C012000816080936F00FFCFF894FFCF48
:02012C000100D0
:00000001FF
