:100000000C9434000C943E000C943E000C943E0082
:100010000C943E000C943E000C943E000C943E0068
:100020000C943E000C943E000C943E000C943E0058
:100030000C943E000C943E000C943E000C943E0048
:100040000C943E000C943E000C943E000C943E0038
:100050000C943E000C943E000C943E000C943E0028
:100060000C943E000C943E0011241FBECFEFD8E04C
:10007000DEBFCDBF0E944C000C945A000C940000CF
:1000800083E886BD14BC84E085BDA89BFECF14BC6C
:1000900015BC81E085BB08958FE384B910E285B17A
:1000A000812785B9CAEFD0E00E94400021972097B0
:0800B000D9F7F5CFF894FFCF5A
:00000001FF
